S01C0000707261637469636133626F617264726F757465722E73726563E5
S21400000000000320E9040000553F0200F949000003
S21400001045050000450500004505000000000000FD
S214000020000000000000000000000000711D01003C
S2140000304505000000000000711F0100D11F0100EF
S2140000405D0500006105000065050000690500000B
S2140000506D050000710500007505000079050000BB
S2140000607D0500008105000085050000890500006B
S2140000708D0500009105000095050000990500001B
S2140000809D050000450500004505000045050000EB
S2140000904505000045050000450500004505000033
S2140000A0A1050000A5050000A9050000AD0500009B
S2140000B0B1050000B5050000B9050000BD0500004B
S2140000C0C1050000C5050000C9050000CD050000FB
S2140000D0D1050000D5050000D90500004505000043
S2140000E045050000450500004505000045050000E3
S2140000F045050000450500004505000045050000D3
S21400010045050000450500004505000045050000C2
S21400011045050000450500004505000045050000B2
S21400012045050000450500004505000045050000A2
S2140001304505000045050000450500004505000092
S21400014045050000DD050000E1050000E5050000AE
S214000150E9050000ED050000450500004505000026
S2140001604505000045050000F1050000F505000006
S214000170F9050000FD050000010600000506000068
S214000180090600000D06000011060000A521020069
S214000190C5210200E52102004505000045050000D6
S2140001A04505000045050000450500004505000022
S2140001B04505000045050000450500004505000012
S2140001C04505000045050000450500004505000002
S2140001D045050000450500004505000045050000F2
S2140003F0450500004505000045050000FFFFFFFF1E
S214000400FFFFFFFFFFFFFFFFFFFFFFFFFEFFFFFFF8
S21400042010B5054C237833B9044B13B10448AFF329
S21400043000800123237010BD400CFF1F0000000049
S2140004408873050008B5064B1BB106480649AFF38E
S21400045000800648036813B1054B03B1984708BDF2
S2140004600000000088730500440CFF1F3C0CFF1FB3
S21400047000000000154B002B08BF134B9D46A3F54C
S214000480803A00218B460F461348144A121A50F041
S21400049032FC0F4B002B00D098470E4B002B00D0A1
S2140004A098470020002104000D000D48002802D0C7
S2140004B00C48AFF3008050F0EFFB2000290018F046
S2140004C0BFFE50F0D5FB00BF000008000000032070
S2140004D00000000000000000400CFF1F249D0020CC
S2140004E0000000000000000072B60D480D490160D3
S2140004F00D4880470D490E4A0E4B9A42BEBF51F832
S214000500040B42F8040BF8E70B490C4A0020914212
S214000510BCBF41F8040BFAE762B609488047000002
S21400052008ED00E00000000059350000C873050023
S2140005300004FF1F400CFF1F400CFF1F249D0020DF
S21400054075040000FFF7FEBF3548004735480047F2
S2140005503548004735480047354800473548004786
S2140005603548004735480047354800473548004776
S2140005703548004735480047354800473548004766
S2140005803548004735480047354800473548004756
S2140005903548004735480047354800473548004746
S2140005A03548004735480047354800473548004736
S2140005B03548004735480047354800473548004726
S2140005C03548004735480047354800473548004716
S2140005D03548004735480047354800473548004706
S2140005E035480047354800473548004735480047F6
S2140005F035480047354800473448004733480047E9
S21400060032480047314800473048004730480047E6
S21400061030480047304800473048004730480047D9
S214000620553F0200F9490000711D0100711F0100CD
S214000630D11F0100450500004505000045050000E6
S214000640450500004505000045050000450500007D
S214000650450500004505000045050000450500006D
S214000660450500004505000045050000450500005D
S2140006704505000045050000CD2E0200E92E0200CB
S214000680610F02009D0F02004505000045050000B1
S21400069045050000B537020045050000E1370200B9
S2140006A0450500000D3802004505000039380200F7
S2140006B045050000D90F0200653802004505000018
S2140006C09138020045050000052F02004505000090
S2140006D045050000450500004505000045050000ED
S2140006E045050000000000000000000000000000BB
S2140006F02DE9F05F40F20048C1F6FF78F0C824BA52
S2140007002DBA36BA3FBAF0C298E8001C802900F02D
S214000710D781C02900F0FF8090E80A0309BA1BBA07
S21400072098FA88F899FA89F9A2E80A035AF8040BA5
S2140007304FEA396ECCF844E8CCF800B0DCF884E830
S2140007408EEA000E84EA0E0485EA040586EA0506AB
S21400075087EA0607F0C2CCF84478CCF800B0DCF89C
S21400076084E881EA0E0183EA010388EA030889EA3D
S2140007700809A2E80A035AF8040B4FEA396ECCF8C7
S21400078044E8CCF800B0DCF884E88EEA000E84EA90
S2140007900E0485EA040586EA050687EA0607F0C21F
S2140007A0CCF84478CCF800B0DCF884E881EA0E0196
S2140007B083EA010388EA030889EA0809A2E80A032B
S2140007C05AF8040B4FEA396ECCF844E8CCF800B07F
S2140007D0DCF884E88EEA000E84EA0E0485EA040556
S2140007E086EA050687EA0607F0C2CCF84478CCF815
S2140007F000B0DCF884E881EA0E0183EA010388EAA7
S214000800030889EA0809A2E80A035AF8040B4FEA23
S214000810396ECCF844E8CCF800B0DCF884E88EEA10
S214000820000E84EA0E0485EA040586EA050687EAD1
S2140008300607F0C2CCF84478CCF800B0DCF884E8C0
S21400084081EA0E0183EA010388EA030889EA0809B7
S214000850A2E80A035AF8040B4FEA396ECCF844E8CB
S214000860CCF800B0DCF884E88EEA000E84EA0E04C9
S21400087085EA040586EA050687EA0607F0C2CCF88C
S2140008804478CCF800B0DCF884E881EA0E0183EA0C
S214000890010388EA030889EA0809A2E80A035AF865
S2140008A0040B4FEA396ECCF844E8CCF800B0DCF81C
S2140008B084E88EEA000E84EA0E0485EA040586EAD9
S2140008C0050687EA0607F0C2CCF84478CCF800B0F4
S2140008D0DCF884E881EA0E0183EA010388EA03086B
S2140008E089EA0809A2E80A035AF8040B4FEA396EA7
S2140008F0CCF844E8CCF800B0DCF884E88EEA000EC9
S21400090084EA0E0485EA040586EA050687EA0607F1
S214000910F0C2BDE8F09F90E8000398FA88F899FACC
S21400092089F9A2E800035AF8040B4FEA3963CCF8B9
S2140009304438CCF800B0DCF8843883EA000384EA54
S214000940030485EA040586EA050687EA060788EAB8
S214000950070889EA0809A2E8F0035AF8040B4FEAE8
S2140009603963CCF84438CCF800B0DCF8843883EA35
S214000970000384EA030485EA040586EA050687EA96
S214000980060788EA070889EA0809A2E8F0035AF881
S214000990040B4FEA3963CCF84438CCF800B0DCF8E6
S2140009A0843883EA000384EA030485EA040586EAB9
S2140009B0050687EA060788EA070889EA0809A2E81A
S2140009C0F0035AF8040B4FEA3963CCF84438CCF8F5
S2140009D000B0DCF8843883EA000384EA030485EA7E
S2140009E0040586EA050687EA060788EA070889EA0C
S2140009F00809A2E8F0035AF8040B4FEA3963CCF86A
S214000A004438CCF800B0DCF8843883EA000384EA83
S214000A10030485EA040586EA050687EA060788EAE7
S214000A20070889EA0809A2E8F0035AF8040B4FEA17
S214000A303963CCF84438CCF800B0DCF8843883EA64
S214000A40000384EA030485EA040586EA050687EAC5
S214000A50060788EA070889EA0809A2E8F0035AF8B0
S214000A60040B4FEA3963CCF84438CCF800B0DCF815
S214000A70843883EA000384EA030485EA040586EAE8
S214000A80050687EA060788EA070889EA0809A2E849
S214000A90F0035AF8040B4FEA3963CCF84438CCF824
S214000AA000B0DCF8843883EA000384EA030485EAAD
S214000AB0040586EA050687EA0607F0C2BDE8F09F49
S214000AC0DAF800004FEA3763CCF84438CCF800B0C8
S214000AD0DCF8843883EA000384EA030485EA040524
S214000AE086EA050687EA0607F0C2DAF804004FEA47
S214000AF03763CCF84438CCF800B0DCF8843883EAA6
S214000B00000384EA030485EA040586EA050687EA04
S214000B100607F0C2DAF808004FEA3763CCF8443824
S214000B20CCF800B0DCF8843883EA000384EA0304D7
S214000B3085EA040586EA050687EA0607F0C2DAF8BB
S214000B400C004FEA3763CCF84438CCF800B0DCF839
S214000B50843883EA000384EA030485EA040586EA07
S214000B60050687EA0607F0C2DAF810004FEA376390
S214000B70CCF84438CCF800B0DCF8843883EA0003BC
S214000B8084EA030485EA040586EA050687EA06077A
S214000B90F0C2DAF814004FEA3763CCF84438CCF8E1
S214000BA000B0DCF8843883EA000384EA030485EAAC
S214000BB0040586EA050687EA0607F0C2DAF8180092
S214000BC04FEA3763CCF84438CCF800B0DCF8843809
S214000BD083EA000384EA030485EA040586EA050638
S214000BE087EA0607F0C2DAF81C004FEA3763CCF84B
S214000BF04438CCF800B0DCF8843883EA000384EA92
S214000C00030485EA040586EA050687EA0607F0C2B5
S214000C10DAF820004FEA3763CCF84438CCF800B056
S214000C20DCF8843883EA000384EA030485EA0405D2
S214000C3086EA050687EA0607F0C2DAF824004FEAD5
S214000C403763CCF84438CCF800B0DCF8843883EA54
S214000C50000384EA030485EA040586EA050687EAB3
S214000C600607F0C2BDE8F09FAFF30080AFF3008048
S214000C702DE9F01F90E8F00024BA2DBA36BA3FBA34
S214000C8040F21040C1F6FF70B1E8000F84EA080495
S214000C9085EA090586EA0A0687EA0B0790E8011F37
S214000CA08BE8F000CCF80000CCF80080F0C989E8AA
S214000CB0F000CCF80000CCF80080F0C989E8F0001D
S214000CC0CCF80000CCF80080F0C989E8F000CCF839
S214000CD00000CCF80080F0C989E8F000CCF80000ED
S214000CE0CCF80080F0C989E8F000CCF80000CCF819
S214000CF00080F0C989E8F000CCF80000CCF800804D
S214000D00F0C989E8F000CCF80000CCF80080F0C903
S214000D1089E8F000CCF80000CCF80080F0C989E83B
S214000D20F0000A2A1DD0CCF80000CCF80080F0C9EC
S214000D3089E8F000CCF80000CCF80080F0C989E81B
S214000D40F0000C2A0DD0CCF80000CCF80080F0C9DA
S214000D5089E8F000CCF80000CCF80080F0C989E8FB
S214000D60F000CCF80000CCF800809AE8F00091E89B
S214000D70000F84EA080485EA090586EA0A0687EA77
S214000D800B0724BA2DBA36BA3FBA83E8F000BDE89E
S214000D90F01F7047AFF30080AFF30080AFF3008022
S214000DA02DE9F01F90E8F00024BA2DBA36BA3FBA03
S214000DB040F23040C1F6FF7001EB021191E8000FDF
S214000DC084EA080485EA090586EA0A0687EA0B0724
S214000DD090E8011F8BE8F00031E9F000CCF8000045
S214000DE0CCF8008089E8F00031E9F000CCF800008B
S214000DF0CCF8008089E8F00031E9F000CCF800007B
S214000E00CCF8008089E8F00031E9F000CCF800006A
S214000E10CCF8008089E8F00031E9F000CCF800005A
S214000E20CCF8008089E8F00031E9F000CCF800004A
S214000E30CCF8008089E8F00031E9F000CCF800003A
S214000E40CCF8008089E8F00031E9F000CCF800002A
S214000E50CCF8008089E8F00031E9F000CCF800001A
S214000E60CCF8008089E8F0000A2A21D031E9F000A9
S214000E70CCF80000CCF8008089E8F00031E9F000FA
S214000E80CCF80000CCF8008089E8F0000C2A0FD0DF
S214000E9031E9F000CCF80000CCF8008089E8F000DA
S214000EA031E9F000CCF80000CCF8008089E8F000CA
S214000EB0CCF80000CCF800809AE8F00031E9000F8A
S214000EC084EA080485EA090586EA0A0687EA0B0723
S214000ED024BA2DBA36BA3FBA83E8F000BDE8F01F50
S214000EE0704700BFAFF30080AFF30080AFF3008021
S214000EF02DE9F00140F2A041C1F6FF7191E8FE0134
S214000F0080E8FE01BDE8F0014FF00000704700BF2A
S214000F102DE9F01F41F2000CCEF2080CD0B005927D
S214000F208B4692E8FE010CF6480989E8FE0140F27D
S214000F30804AC1F6FF7ACDF808A00DF11C0900BF63
S214000F4089E8FE01DDF808A09AE8E00750F8042BCF
S214000F5011BA1091CCF84418CCF800905AF8043B1B
S214000F60CCF8C438CCF80080CCF8007050F8042BCD
S214000F7011BA5AF8043BCCF844181191CCF80090FA
S214000F80CCF8C438CCF80080CCF8007050F8042BAD
S214000F9011BA5AF8043BCCF844181291CCF80090D9
S214000FA0CCF8C438CCF80080CCF8007050F8042B8D
S214000FB011BA5AF8043BCCF844181391CCF80090B8
S214000FC0CCF8C438CCF80080CCF8007050F8042B6D
S214000FD011BA5AF8043BCCF844181491CCF8009097
S214000FE0CCF8C438CCF80080CCF8007050F8042B4D
S214000FF011BA5AF8043BCCF844181591CCF8009076
S214001000CCF8C438CCF80080CCF8007050F8042B2C
S21400101011BA5AF8043BCCF844181691CCF8009054
S214001020CCF8C438CCF80080CCF8007050F8042B0C
S21400103011BA5AF8043BCCF844181791CCF8009033
S214001040CCF8C438CCF80080CCF8007050F8042BEC
S21400105011BA5AF8043BCCF844181891CCF8009012
S214001060CCF8C438CCF80080CCF8007050F8042BCC
S21400107011BA5AF8043BCCF844181991CCF80090F1
S214001080CCF8C438CCF80080CCF8007050F8042BAC
S21400109011BA5AF8043BCCF844181A91CCF80090D0
S2140010A0CCF8C438CCF80080CCF8007050F8042B8C
S2140010B011BA5AF8043BCCF844181B91CCF80090AF
S2140010C0CCF8C438CCF80080CCF8007050F8042B6C
S2140010D011BA5AF8043BCCF844181C91CCF800908E
S2140010E0CCF8C438CCF80080CCF8007050F8042B4C
S2140010F011BA5AF8043BCCF844181D91CCF800906D
S214001100CCF8C438CCF80080CCF8007050F8042B2B
S21400111011BA5AF8043BCCF844181E91CCF800904B
S214001120CCF8C438CCF80080CCF8007050F8042B0B
S21400113011BA5AF8043BCCF844181F91CCF800902A
S214001140CCF8C438CCF80080CCF800704FF03002F1
S21400115020AB00BF53F8401CCCF8441853F83C1C96
S214001160CCF86818CCF8005053F81C1CCCF8C418FF
S21400117053F8081CCCF86818CCF80060DCF8841823
S21400118043F8041BCCF800905AF8041BCCF8C4189B
S214001190CCF80080CCF80070013ADBD10DF11C09C8
S2140011A00CF6C80A99E8FE018AE8FE010CF6880AE1
S2140011B09AE8FE01BBF1010B7FF4C2AEDDF8149095
S2140011C050B089E8FE01BDE8F01F7047AFF300801D
S2140011D02DE9F04F40F2A044C1F6FF7494E8F00FFA
S2140011E082E8F00FFFF794FEBDE8F08FAFF30080C3
S2140011F00A464FF001018BE6AFF30080AFF30080A4
S21400120030B4C579DFF8BC3504785D5D6C4062406B
S2140012100A70447862404A70847854408C70C5786E
S214001220027B5D5D6A400A73C5786C40CC70C57AF7
S21400123004795D5D6C400C7145796C404C71857924
S2140012406C408C71C5796C40CC71C57B047A5B5D53
S21400125063400B72447A63404B72847A63408B72AD
S214001260C47A6340CB72437B5A404A73837B5A40AE
S2140012708A73C07B5040C87330BC704730B4DFF808
S214001280483593F8A02093F8B040DFF8381593F867
S214001290B55062408A5C93F8B14083F8A02093F87A
S2140012A0A12062408A5C93F8B24083F8A12093F8AC
S2140012B0A22062408A5C93F8B34083F8A22093F899
S2140012C0A32062408A5C93F8B44083F8A32093F886
S2140012D0A420624093F8A5406C400C5D93F8B6508D
S2140012E083F8A44093F8A6406C400C5D93F8B75082
S2140012F083F8A54093F8A7406C400C5D93F8BA506D
S21400130083F8A6408A5C93F8B84083F8A72093F841
S214001310A820624093F8AA406C400C5D93F8BB503E
S21400132083F8A8408A5C93F8B94083F8AA2093F81B
S214001330A920624093F8AB406C400C5D93F8BE5019
S21400134083F8A9408A5C93F8BF4083F8AB2093F8F3
S214001350AF20624093F8AE406C400C5D93F8BD50F1
S21400136083F8AF4093F8AD406C400C5D93F8BC50EA
S21400137083F8AE4093F8AC406C400C5D83F8AD400B
S214001380895C83F8AC10024630BC03F1B00103F16F
S214001390B00035E7F0B4DFF8300490F8A44090F8D9
S2140013A0A05090F8A83090F8AC2084EA0501594087
S2140013B082EA01060FF2642184EA0507CF5D7740D2
S2140013C06F4080F8A07083EA0407CF5D77407C40CA
S2140013D080F8A44082EA03040C5D7440634080F801
S2140013E0A83085EA0203CB5C90F8A14090F8A5509F
S2140013F073405A4080F8AC2085EA040790F8A9307C
S21400140090F8AD20CF5D85EA04065E4056407740F2
S214001410674080F8A17083EA0507CF5D77407D407E
S21400142080F8A55082EA03054D5D75406B4080F854
S214001430A93084EA0203CB5C90F8A24090F8A6504C
S21400144073405A4080F8AD2085EA040790F8AA3029
S21400145090F8AE20CF5D85EA04065E4056407740A1
S214001460674080F8A27083EA0507CF5D77407D402D
S21400147080F8A65082EA03054D5D75406B4080F803
S214001480AA3084EA0203CB5C90F8A34090F8A750F9
S21400149073405A4080F8AE2085EA040790F8AB30D7
S2140014A090F8AF20CF5D85EA04065E405640774050
S2140014B0674080F8A37083EA0507CF5D77407D40DC
S2140014C080F8A75082EA03054D5D75406B4080F8B2
S2140014D0AB3084EA0203C95C7140514080F8AF101B
S2140014E0F0BC70472DE9F04F82B0B8480FF22C12CE
S2140014F00421037BD45C8DF8064090F80890145DB8
S21400150012F809A0155D12F80A608DF8056090F8CB
S214001510048012F806E012F808608DF80460965D04
S2140015208DF80360965D9DF803B08DF80060067830
S214001530975D8DF80270D75D8DF8017012F807C0C0
S2140015409DF800708BEA07079DF804B08BEA070742
S2140015508EEA07078AEA070789EA07076F406740A7
S2140015606C405F409DF805B08CEA070777408BEA31
S2140015700E0B8AEA0B0A9DF806B085EA0A0A8BEA81
S2140015800A0A83EA0A0A9DF801B08CEA0A0A8BEA7C
S2140015900A0A9DF800B086EA0A0A8BEA0A0A9DF84B
S2140015A006B08BEA04049DF802B08CEA04048BEAC9
S2140015B0040474409DF8006074409DF80360744015
S2140015C09DF8016086EA0C068BEA060C9DF8006022
S2140015D086EA0C0C9DF8046086EA0C0688EA060685
S2140015E08EEA060688EA04048EEA04049DF805E0FE
S2140015F08EEA060689EA060675406B40037088EA9E
S2140016000A0A89EA0404077180F808A00473401CDB
S214001610491E7FF46EAF02B0BDE8F08F00020406EC
S214001620080A0C0E10121416181A1C1E2022242645
S214001630282A2C2E30323436383A3C3E4042444635
S214001640484A4C4E50525456585A5C5E6062646625
S214001650686A6C6E70727476787A7C7E8082848615
S214001660888A8C8E90929496989A9C9EA0A2A4A605
S214001670A8AAACAEB0B2B4B6B8BABCBEC0C2C4C6F5
S214001680C8CACCCED0D2D4D6D8DADCDEE0E2E4E6E5
S214001690E8EAECEEF0F2F4F6F8FAFCFE1B191F1D71
S2140016A0131117150B090F0D030107053B393F3DB5
S2140016B0333137352B292F2D232127255B595F5DA5
S2140016C0535157554B494F4D434147457B797F7D95
S2140016D0737177756B696F6D636167659B999F9D85
S2140016E0939197958B898F8D83818785BBB9BFBD75
S2140016F0B3B1B7B5ABA9AFADA3A1A7A5DBD9DFDD65
S214001700D3D1D7D5CBC9CFCDC3C1C7C5FBF9FFFD54
S214001710F3F1F7F5EBE9EFEDE3E1E7E52A480FF241
S214001720B00190F8A0208A5C90F8A63080F8A0203F
S21400173090F8A1208A5C80F8A12090F8A2208A5C0C
S21400174080F8A22090F8A3208A5C80F8A320CB5CC7
S21400175090F8A72080F8A73090F8A530CB5C80F8EA
S214001760A63090F8A430CB5C80F8A5308A5C90F860
S214001770A93080F8A420CB5C90F8AB2080F8AB3082
S2140017808A5C90F8A83080F8A920CB5C90F8AA2054
S21400179080F8AA308A5C90F8AD3080F8A820CB5C40
S2140017A090F8AC2080F8AC3090F8AE30CB5C80F887
S2140017B0AD3090F8AF30CB5C80F8AE30895C80F806
S2140017C0AF107047102900005C0CFF1FFC0CFF1FB9
S2140017D052096AD53036A538BF40A39E81F3D7FBA1
S2140017E07CE339829B2FFF87348E4344C4DEE9CBEB
S2140017F0547B9432A6C2233DEE4C950B42FAC34E60
S214001800082EA16628D924B2765BA2496D8BD12515
S21400181072F8F66486689816D4A45CCC5D65B692B9
S2140018206C704850FDEDB9DA5E154657A78D9D845D
S21400183090D8AB008CBCD30AF7E45805B8B345067D
S214001840D02C1E8FCA3F0F02C1AFBD0301138A6B97
S2140018503A9111414F67DCEA97F2CFCEF0B4E673C7
S21400186096AC7422E7AD3585E2F937E81C75DF6E75
S21400187047F11A711D29C5896FB7620EAA18BE1BDB
S214001880FC563E4BC6D279209ADBC0FE78CD5AF481
S2140018901FDDA8338807C731B11210592780EC5FC7
S2140018A060517FA919B54A0D2DE57A9F93C99CEF23
S2140018B0A0E03B4DAE2AF5B0C8EBBB3C8353996124
S2140018C0172B047EBA77D626E169146355210C7D62
S2140018D030B50446154681B0C5F10E0004F8010B7C
S2140018E020461DF019FCC5F10F02601901B0BDE8D5
S2140018F0304000211DF076BC2DE9F84F84B0DFF8AB
S214001900504D037884F8A030002A037984F8A1307B
S214001910037A84F8A230037B84F8A330437884F8F3
S214001920A430437984F8A530437A84F8A630437B04
S21400193084F8A730837884F8A830837984F8A930AF
S214001940837A84F8AA30837B84F8AB30C37884F833
S214001950AC30C37984F8AD30C37A84F8AE30C07B3F
S21400196084F8AF00087884F8B000087984F8B100ED
S214001970087A84F8B200087B84F8B300487884F8C4
S214001980B400487984F8B500487A84F8B600487BF5
S21400199084F8B700887884F8B800887984F8B900A5
S2140019A0887A84F8BA00887B84F8BB00C87884F804
S2140019B0BC00C87984F8BD00C87A84F8BE00C87B2D
S2140019C084F8BF0000F070850120FFF757FCFFF792
S2140019D0E1FC0220FFF752FCFFF7DCFC0420FFF7D7
S2140019E04DFCFFF7D7FC0820FFF748FCFFF7D2FCBA
S2140019F094F8A00094F8B0100FF6147594F8A2208E
S214001A0094F8A33094F8B46094F8A6C094F8B7B0ED
S214001A1094F8AAE094F8AB9094F8ACA04840285C00
S214001A2094F8A11084F8A00094F8B1004140695CD5
S214001A3084F8A11094F8B2104A40AA5C84F8A22058
S214001A4094F8B3205340EB5C84F8A33094F8A430A9
S214001A5086EA030794F8B53094F8A5605E40AE5D5C
S214001A6084F8A46094F8B66086EA0C0C15F80CC0EE
S214001A7084F8A5C094F8A7C08BEA0C0C15F80CC027
S214001A8084F8A6C0EF5D94F8B8C084F8A77094F800
S214001A90A8708CEA070C94F8BA7087EA0E0E15F850
S214001AA00EE084F8A8E015F80CC094F8A9E084F8D5
S214001AB0AAC094F8B9C08CEA0E0894F8BBE08EEA87
S214001AC0090915F8099084F8A99015F8088094F883
S214001AD0AF9084F8AB8094F8BF8088EA09088DF848
S214001AE0008094F8AE9094F8BE8088EA090815F84D
S214001AF0088094F8AD9084F8AF8094F8BD8088EAAA
S214001B00090915F8099084F8AE9094F8BC9089EA13
S214001B100A0915F8099094F8B0A084F8AD909DF8DD
S214001B20009015F8099084F8AC9015F80B9089F0A1
S214001B30100989EA0A0984F8B09094F8B09089EA06
S214001B40000084F8B10094F8B100484084F8B20070
S214001B50A95C94F8BC00484084F8BC0094F8B20035
S214001B60504084F8B30015F80E1094F8B4004840BE
S214001B7084F8B40094F8B40094F8BF10584084F881
S214001B80B50094F8B500464086EA0B0084F8B70026
S214001B9084F8B66094F8B800695C484084F8B800E9
S214001BA094F8B80080EA0C0989EA070787EA0E006D
S214001BB084F8BB0084F8B99084F8BA7094F8BC0036
S214001BC080EA080894F8BE0084F8BD8088EA000A17
S214001BD094F8BF0084F8BEA08AEA000B84F8BFB071
S214001BE0FFF7D8FB94F8A00094F8B01094F8B4204F
S214001BF094F8B53094F8ABC094F8BCE04840285C44
S214001C0094F8B11084F8A00094F8A1004840285C2D
S214001C1094F8B21084F8A10094F8A2004840285C1A
S214001C2094F8A31084F8A20094F8B3004140695CCD
S214001C3084F8A31094F8A4104A4094F8A5105940CC
S214001C40695C94F8A73084F8A41094F8A610714044
S214001C50695C84F8A51094F8B7104B40EB5C84F8E8
S214001C60A630AA5C94F8B83084F8A72094F8A82088
S214001C705A4094F8AA307B40EB5C84F8A830AA5C03
S214001C8084F8AA2094F8A92089EA020394F8BB20D5
S214001C9082EA0C0C15F80CC084F8A9C094F8AEC003
S214001CA0EB5C84F8AB308AEA0C0C15F80CC094F8A0
S214001CB0AF3084F8AFC08BEA030394F8ADC088EA6F
S214001CC00C0C15F80CC084F8AEC094F8ACC08EEAC4
S214001CD00C0C15F80CC084F8ADC0EB5C84F8AC3086
S214001CE0695C94F8B03081F02001594084F8B01057
S214001CF094F8B03094F8B110594084F8B11094F8C4
S214001D00B13094F8B210594084F8B210285C94F8B8
S214001D10B21080EA0E0084F8BC0094F8B300484085
S214001D2084F8B300A95C94F8B400484084F8B40082
S214001D3094F8B41094F8B500484084F8B50094F8C8
S214001D40B500464094F8B70084F8B660704084F852
S214001D50B70094F8B80015F80B10484084F8B8009F
S214001D6094F8B80080EA090989EA070787EA0200BA
S214001D7084F8BB0084F8B99084F8BA7094F8BC0074
S214001D8080EA080888EA0A0A8AEA0B0B84F8BD800B
S214001D9084F8BEA084F8BFB0FFF7FCFA94F8A00061
S214001DA094F8B01094F8B42094F8B53094F8ABC01A
S214001DB094F8BCE04840285C94F8B11084F8A00081
S214001DC094F8A1004840285C94F8B21084F8A1006A
S214001DD094F8A2004840285C94F8A31084F8A20067
S214001DE094F8B3004140695C84F8A31094F8A410FA
S214001DF04A4094F8A5105940695C94F8A73084F8D6
S214001E00A41094F8A6107140695C84F8A51094F8A4
S214001E10B7104B40EB5C84F8A630AA5C94F8B83058
S214001E2084F8A72094F8A8205A4094F8AA307B405B
S214001E30EB5C84F8A830AA5C84F8AA2094F8A92061
S214001E4089EA020394F8BB2082EA0C0C15F80CC051
S214001E5084F8A9C094F8AEC0EB5C84F8AB308AEA8C
S214001E600C0C15F80CC094F8AF3084F8AFC08BEAB1
S214001E70030394F8ADC088EA0C0C15F80CC084F87F
S214001E80AEC094F8ACC08EEA0C0C15F80CC084F802
S214001E90ADC0EB5C84F8AC30695C94F8B03081F08F
S214001EA04001594084F8B01094F8B03094F8B1105E
S214001EB0594084F8B11094F8B13094F8B2105940F3
S214001EC084F8B210285C94F8B21080EA0E0084F809
S214001ED0BC0094F8B300484084F8B300A95C94F8BA
S214001EE0B400484084F8B40094F8B41094F8B500F0
S214001EF0484084F8B50094F8B500704084F8B60001
S214001F0094F8B61094F8B700484084F8B70094F8F0
S214001F10B80015F80B10484084F8B80094F8B800DC
S214001F2080EA090084F8B90094F8B900784084F88B
S214001F30BA0094F8BA1081EA020084F8BB0094F85C
S214001F40BC0080EA080084F8BD0094F8BD0080EA72
S214001F500A0686EA0B0784F8BE6084F8BF70FFF7AF
S214001F6019FA94F8A00094F8B01094F8B42094F8F5
S214001F70B53094F8BAC094F8BDE04840285C94F8B0
S214001F80B11084F8A00094F8A1004840285C94F8AA
S214001F90B21084F8A10094F8A2004840285C94F897
S214001FA0A31084F8A20094F8B3004140695C84F85A
S214001FB0A31094F8A410514094F8A5205A40AA5CA7
S214001FC094F8B63084F8A42094F8A6205A40AA5C68
S214001FD094F8A73084F8A52094F8B7205340EB5C1B
S214001FE084F8A630695C94F8B83084F8A71094F8A2
S214001FF0A810594094F8AA308CEA0303EB5C94F8D6
S214002000ABC084F8A830695C94F8B93084F8AA109C
S21400201094F8A9104B4094F8BB1081EA0C0C15F804
S2140020200CC084F8A9C094F8AEC0EB5C84F8AB3062
S21400203086EA0C0C15F80CC094F8AF3084F8AFC0E4
S2140020407B4094F8ADC08EEA0C0C15F80CC094F8E2
S214002050BCE084F8AEC094F8ACC08EEA0C0C15F860
S2140020600CC084F8ADC0EB5C84F8AC30AA5C94F885
S214002070B03082F080025A4084F8B02094F8B03035
S21400208094F8B12083EA020894F8B22084F8B1806C
S21400209088EA020984F8B290285C80EA0E0084F888
S2140020A0BC0094F8B30089EA000084F8B300695CC9
S2140020B094F8B400484084F8B40094F8B41094F847
S2140020C0B50081EA000A94F8B60084F8B5A08AEA5A
S2140020D0000B84F8B6B094F8B7008BEA000084F8DA
S2140020E0B700E95D94F8B800484084F8B80094F862
S2140020F0B81094F8B900484084F8B90094F8B910BC
S21400210094F8BA00484084F8BA0094F8BA1094F8E4
S214002110BB00484084F8BB0094F8BC1094F8BD009F
S214002120484084F8BD0094F8BD00704084F8BE00B6
S21400213094F8BE00784084F8BF00FFF72BF994F8B7
S214002140A00094F8B01094F8B42094F8A73094F84F
S214002150BA6094F8BE704840285C94F8A31084F8DF
S214002160A00094F8A10088EA0000285C84F8A1008A
S21400217094F8A20089EA0000285C84F8A20094F88B
S214002180B3004140695C84F8A31094F8A410514051
S21400219094F8A5208AEA0202AA5C84F8A42094F89F
S2140021A0A6208BEA0202AA5C84F8A52094F8B72041
S2140021B05340EB5C84F8A630695C94F8B83084F839
S2140021C0A71094F8A810594094F8AA307340EB5C16
S2140021D094F8AB6084F8A830695C94F8B93084F859
S2140021E0AA1094F8A9104B4094F8BB104E40AE5D70
S2140021F084F8A960EB5C94F8BF6084F8AB3094F880
S214002200AF30734094F8AE607E40AE5D94F8BD701B
S21400221084F8AF6094F8AD607E40AE5D94F8BC7014
S21400222084F8AE6094F8AC607E40AE5D84F8AD6035
S214002230EB5C84F8AC30AA5C94F8B03082F01B02F9
S2140022405A4084F8B02094F8B02082EA080284F855
S214002250B12094F8B12082EA090284F8B220285C02
S21400226094F8B220784084F8BC0094F8B30050404C
S21400227084F8B300695C94F8B400484084F8B4006D
S21400228094F8B40080EA0A0084F8B50094F8B50023
S21400229080EA0B0084F8B60094F8B61094F8B700FD
S2140022A0484094F8BF1084F8B700695C94F8B8000A
S2140022B081EA000694F8B90094F8BC1084F8B86077
S2140022C086EA000794F8BA0084F8B97087EA00082E
S2140022D094F8BB0084F8BA8088EA000084F8BB0053
S2140022E094F8BD0081EA000994F8BE0084F8BD9019
S2140022F089EA000A94F8BF0084F8BEA08AEA000BB8
S21400230084F8BFB0FFF746F894F8A00094F8B01031
S21400231094F8B42094F8B53094F8ABC094F8BCE0C8
S2140023204840285C94F8B11084F8A00094F8A10006
S2140023304840285C94F8B21084F8A10094F8A200F3
S2140023404840285C94F8A31084F8A20094F8B300E0
S2140023504140695C84F8A31094F8A410514094F8A6
S214002360A5205A40AA5C94F8B63084F8A42094F8C5
S214002370A6205A40AA5C94F8A73084F8A52094F8C2
S214002380B7205340EB5C84F8A630695C94F8AA301A
S21400239084F8A71088EA030394F8A810EB5C84F886
S2140023A0A8307140695C84F8AA1094F8A91087EAEE
S2140023B0010394F8BB1081EA0C0C15F80CC084F8E5
S2140023C0A9C094F8AEC0EB5C84F8AB308AEA0C0C7B
S2140023D015F80CC094F8AF3084F8AFC08BEA03034E
S2140023E094F8ADC089EA0C0C15F80CC084F8AEC0A1
S2140023F094F8ACC08EEA0C0C15F80CC084F8ADC08E
S214002400EB5C84F8AC30AA5C94F8B03082F036020C
S2140024105A4084F8B02094F8B03094F8B1205A406E
S21400242084F8B12094F8B2305A4094F8B33084F867
S214002430B2205A40285C84F8B32080EA0E0094F854
S214002440B42084F8BC0080EA0900695C514084F836
S214002450B41094F8B520514084F8B51094F8B6201E
S214002460514084F8B61094F8B720514084F8B7105D
S21400247015F80B1094F8BB2084F8BD00714084F862
S214002480B81080EA0A00794084F8B91084F8BE00D3
S21400249081EA080184F8BA1080EA0B00514084F8FB
S2140024A0BB1084F8BF0060E00FF258412CC901A8A9
S2140024B021462CC09DF8042004F1B000FEF7A0FED3
S2140024C00DF1050504F110065FF0090715F8012B5C
S2140024D03146A6F11000FEF793FE10367F1EF5D1AA
S2140024E004F1A00004F190010422037811F8015BC6
S2140024F06B40037011F8015B43786B40437011F832
S214002500015B83786B40837011F8015BC3786B4086
S214002510C370001D521EE8D1FFF700F95FF00905F1
S21400252004EB051104F1A00010390422037811F819
S214002530016B7340037011F8016B4378734043706E
S21400254011F8016B83787340837011F8016BC378C0
S2140025507340C370001D521EE8D1FEF7C3FFFFF79D
S214002560DDF86D1EEDB2002DDAD194F8A00094F8D7
S214002570B01048400499087094F8A10094F8B1107F
S21400258048400499087194F8A20094F8B2104840A4
S2140025900499087294F8A30094F8B310484004997C
S2140025A0087394F8A40094F8B4104840049948704E
S2140025B094F8A50094F8B51048400499487194F82A
S2140025C0A60094F8B61048400499487294F8A700FC
S2140025D094F8B71048400499487394F8A80094F803
S2140025E0B81048400499887094F8A90094F8B91077
S2140025F048400499887194F8AA0094F8BA104840A4
S2140026000499887294F8AB0094F8BB10484004997B
S214002610887394F8AC0094F8BC1048400499C870CD
S21400262094F8AD0094F8BD1048400499C87194F829
S214002630AE0094F8BE1048400499C87294F8AF00F3
S21400264094F8BF1048400499C87305B0BDE8F08FF1
S2140026505C0CFF1F2DE9FF4F95B04FF002099DF867
S2140026608C00DDF89080DDF894A0C0F10F0080B2F9
S21400267012909DF88C00C0F10F010A91BDF8581019
S214002680494211910DEB00011091991CADF82610EE
S214002690190AADF82410BDF85810090AADF8221032
S2140026A09DF89C10891E89008DF8201004A9084406
S2140026B00C909DF89C000B900D900BE069465046E0
S2140026C015F0C0FF002FA244A34440F0E780119805
S2140026D050441590A9F101001FFA80F9B9F1000FD6
S2140026E0289803D0C00700F1B48002E0C00740F18C
S2140026F005812698002800F0A9800D980428C0F2CD
S214002700A5809DF88C009DF88C202299C0F10E00C3
S2140027108DF810000DF111001CF0FEFC0C980A9AC2
S2140027200021401C1CF05EFDBDF8600000B140209A
S2140027309DF820209DF81010104308438DF81000D7
S214002740BDF858008DF81F00BDF822008DF81E0059
S214002750BDF86000E8B10E28B4BF83464FF00E0BFC
S2140027601022002168461CF03DFD17995A460DF1CF
S21400277002001CF0D1FCBDF86000BDF826408DF8C4
S21400278001000127BDF824008DF800000025EB4667
S21400279008E0BDF85840DDF854B00027002C14BF00
S2140027A00125022504AA414604A815F093FD022D32
S2140027B026DAC5F102056D1E594604A8102CACBFDA
S2140027C010262646F6B2324615F03CFF04AA4146CD
S2140027D004A815F07FFDA41B3800A4B203D0DDF8D2
S2140027E05CB00027B61EF6B2002CB344E4D1BDF8A8
S2140027F0580000281EBF0446DDF854B0002DDAD17C
S2140028009DF88C009DF88C202299C0F10E008DF862
S21400281000000DF101001CF07FFC10980A9A0021C0
S214002820401C1CF0DFFC6A464146684615F052FD27
S2140028309DF89C2004A9684615F004FF28980B9A7A
S214002840C007269869462ED41CF066FCB9F1000F26
S21400285054D0BDF8580000283FF43CAF0746129D00
S2140028609DF88C2022990020CDE90E009DF88C0062
S214002870C0F10E008DF810000DF111001CF04CFC9C
S2140028800C980A9A0021401C1CF0ACFC04A8694273
S2140028904618DDF854B0002F3FF419AF102FACBF28
S2140028A010243C4607E01CF077FC0028CED101201F
S2140028B019B0BDE8F08FDDE90E01401C61F1FF3173
S2140028C0CDE90E012A460EA906F110001CF040FCC8
S2140028D06A46414604A815F0FDFC15983F1B504576
S2140028E0BFB2E2B23FF4EAAE5946684615F0AAFE19
S2140028F02246694650461CF00FFCE3E6002019B05D
S214002900BDE8F08F01020408102040801B3600004E
S214002910637C777BF26B6FC53001672BFED7AB7697
S214002920CA82C97DFA5947F0ADD4A2AF9CA472C042
S214002930B7FD9326363FF7CC34A5E5F171D83115AF
S21400294004C723C31896059A071280E2EB27B275D0
S21400295009832C1A1B6E5AA0523BD6B329E32F8448
S21400296053D100ED20FCB15B6ACBBE394A4C58CF40
S214002970D0EFAAFB434D338545F9027F503C9FA814
S21400298051A3408F929D38F5BCB6DA2110FFF3D2E2
S214002990CD0C13EC5F974417C4A77E3D645D197396
S2140029A060814FDC222A908846EEB814DE5E0BDB90
S2140029B0E0323A0A4906245CC2D3AC629195E479C7
S2140029C0E7C8376D8DD54EA96C56F4EA657AAE0821
S2140029D0BA78252E1CA6B4C6E8DD741F4BBD8B8ABC
S2140029E0703EB5664803F60E613557B986C11D9E22
S2140029F0E1F8981169D98E949B1E87E9CE5528DF99
S214002A008CA1890DBFE6426841992D0FB054BB16C4
S214002A1000281DBF0949086000200120704710B536
S214002A20064C07492068A1FB00016FF00402002352
S214002A3000F01EF82260104610BD0000C005FF1F03
S214002A40C160A81010F8012B11F8013B012A28BF1D
S214002A509A42F7D0D01A70479140031C90409C468B
S214002A60203A9340194352426346D3401943704775
S214002A704BB942B9002908BF002802D04FF0FF31F9
S214002A80084600F03BB882B0EC462DE9005000F056
S214002A901DF8DDF804E002B00CBC70472DE9704369
S214002AA0069E14461D468046894600F029F804FB1B
S214002AB001F300FB0533A4FB00451D44B8EB0404FA
S214002AC069EB0505C6E90045BDE870832DE970434E
S214002AD0069E1446804689461D4600F05DF900FBBA
S214002AE005F504FB0153A0FB04451D44B8EB0404A4
S214002AF069EB0505C6E90045BDE87083704700BF71
S214002B0000292DE9F00FC0F29F800024002BC0F2B0
S214002B109680154606460F46002B3ED18A4257D968
S214002B20B2FA82F34BB1C3F1200201FA03F720FA9E
S214002B3002F29D40174300FA03F6290CB7FBF1F2A8
S214002B40330C01FB127CA8B243EA0C4700FB02F3ED
S214002B50BB4209D97F1902F1FF3C80F00181BB42DC
S214002B6040F2FE80023A2F44FF1AB7FBF1F3B6B2EA
S214002B7001FB137146EA014100FB03F0884208D9C5
S214002B80491903F1FF3780F0ED80884240F2EA8071
S214002B90023B43EA0242002303E08B420AD90023A9
S214002BA01A461046194614B1404261EB4101BDE891
S214002BB0F00F7047B3FA83F8B8F1000F40F0848046
S214002BC08B4202D3824200F2DE8000230122E8E735
S214002BD012B90123B3FBF2F5B5FA85F2002A39D112
S214002BE07F1B280C1FFA85FC0123B7FBF0F1320C83
S214002BF000FB117742EA07470CFB01F2BA4207D9FD
S214002C007F1901F1FF3802D2BA4200F2C180414674
S214002C10BF1AB7FBF0F2B6B200FB127046EA0040ED
S214002C200CFB02FC844507D9401902F1FF3702D29B
S214002C30844500F2AB803A4642EA0142B1E7E443FB
S214002C40524263EB430364E7404261EB41014FF0BD
S214002C50FF345BE79540C2F1200327FA03F1280C06
S214002C6026FA03F39740B1FBF0F81F433B0C00FB3A
S214002C7018111FFA85FC43EA01410CFB08F38B424E
S214002C8006FA02F608D9491908F1FF3279D28B42C2
S214002C9077D9A8F102082944C91AB1FBF0F3BFB2EC
S214002CA000FB131147EA01470CFB03F2BA4207D9AF
S214002CB07F1903F1FF3160D2BA425ED9023B2F443E
S214002CC0BF1A43EA084390E7C8F1200203FA08FC5B
S214002CD025FA02F343EA0C0C4FEA1C4921FA02F3E8
S214002CE001FA08F720FA02F2B3FBF9F1174309FBE1
S214002CF011333A0C1FFA8CFB42EA03430BFB01FA32
S214002D009A4505FA08F008D913EB0C0301F1FF32D7
S214002D1035D29A4533D902396344CAEB0303B3FB71
S214002D20F9F209FB1233BFB247EA03470BFB02F97D
S214002D30B94508D917EB0C0702F1FF331BD2B9458A
S214002D4019D9023A674442EA0145A5FB0001C9EBDE
S214002D5007078F424FF000030AD305D02A4620E724
S214002D60624601E73B4614E706FA08F68642F5D2C5
S214002D706A1E002315E71A46E5E70B46A0E711464C
S214002D80CBE7904688E7434642460AE7023A53E7CF
S214002D9002392F443CE700BF2DE9F00F14460546E4
S214002DA00E46002B43D18A4253D9B2FA82F757B166
S214002DB0C7F1200620FA06F601FA07F302FA07F42E
S214002DC01E4300FA07F5210CB6FBF1F22B0C01FBB3
S214002DD01267A0B243EA074600FB02F3B34209D9E2
S214002DE0361902F1FF3780F0F680B34240F2F380E6
S214002DF0023A2644F61AB6FBF1F3ADB201FB1361B4
S214002E0045EA014100FB03F0884208D9091903F19D
S214002E10FF3680F0E280884240F2DF80023B43EAE1
S214002E200242002310461946BDE8F00F70478B4259
S214002E304AD8B3FA83F6002E4DD18B4202D3824293
S214002E4000F2D6800023012210461946BDE8F00F96
S214002E50704712B90124B4FBF2F4B4FA84F2002AE3
S214002E607CD1091B260CA7B20123B1FBF6F02A0C75
S214002E7006FB101142EA014107FB00F28A4207D91D
S214002E80091900F1FF3C02D28A4200F2C380604674
S214002E90891AB1FBF6F2ADB206FB121145EA0145FE
S214002EA007FB02F7AF4208D92C1902F1FF3180F078
S214002EB09680A74240F29380023A42EA00421046C9
S214002EC01946BDE8F00F704700231A46104619460B
S214002ED0BDE8F00F7047C6F1200522FA05F4B340AE
S214002EE01C434FEA144821FA05F301FA06F720FAC4
S214002EF005F5B3FBF8FC2F4308FB1C333D0C1FFA0B
S214002F0084FA45EA03430AFB0CF9994502FA06FBE4
S214002F1004D91B190CF1FF326DD39446C9EB030399
S214002F20B3FBF8F508FB1533BFB247EA03470AFBC5
S214002F3005F8B84504D93F1905F1FF3361D31D469E
S214002F4045EA0C4CACFB0B23C8EB07079F424FF03F
S214002F50000549D345D062462B4663E79440C2F14C
S214002F60200321FA03FC260C20FA03F301FA02F5EB
S214002F70BCFBF6F843EA05010B0C06FB18CCA7B21F
S214002F8043EA0C4C07FB08F3634500FA02F509D93F
S214002F901CEB040C08F1FF323AD2634538D9A8F18D
S214002FA00208A444C3EB0C0CBCFBF6F389B206FB88
S214002FB013CC41EA0C4107FB03F28A4207D90919F0
S214002FC003F1FF3022D28A4220D9023B2144891ADB
S214002FD043EA084349E73A460CE733461FE70A4602
S214002FE06BE7B0409042B6D20CF1FF32002319E7EF
S214002FF03346324616E799458FD9ACF1020C234486
S2140030008CE7B8459BD9023D274499E70346DEE79F
S2140030109046C7E7023821443AE700BF0FB480B5B0
S21400302082B000AF0B4B1B78002B02D14FF0FF3362
S21400303009E007F114033B60074839693A6800F075
S214003040D5F878607B6818460837BD46BDE88040EE
S21400305004B070471C0DFF1F5D30000080B582B0C5
S21400306000AF78600A4B1B78002B02D14FF0FF337D
S21400307009E0074B9B68064A51683A1D0846114608
S21400308001229847012318460837BD4680BD00BF79
S2140030901C0DFF1F80B586B000AFB9607A603B603C
S2140030A00346FB73BB687B610CE097F90F203B6A15
S2140030B0104698473B681B685A1C3B681A607B6939
S2140030C001337B617A697B689A42EEDB1837BD462E
S2140030D080BD00BF80B48DB000AFF860B9607A6084
S2140030E03B600023FB61FB68BB61BB695A1CBA618D
S2140030F000221A707B68002B36D0BB681B68FB6208
S214003100FB6A002B07D1BB6930221A70FB690133BA
S214003110FB61FB6964E023E0FA6A3B6892FBF3F329
S2140031207B617B693A6802FB03F3FA6AD31ABB62D7
S214003130BB6A002B06DABB6A3B623B6AC3F130030C
S214003140BB6202E0BB6A3033BB627B69FB62BB6971
S2140031505A1CBA61BA6AD2B21A70FB690133FB61B3
S214003160FB6A002BD8D13AE0BB681B687B627B6A9F
S214003170002B07D1BB6930221A70FB690133FB6153
S214003180FB692DE028E03B687A6AB2FBF3F33B610B
S2140031903B683A6902FB03F37A6AD31A3B623B6ADE
S2140031A0092B03D83B6A30333B620AE097F8383085
S2140031B0002B01D0412300E061233A6A13440A3B06
S2140031C03B623B697B62BB695A1CBA613A6AD2B2FF
S2140031D01A70FB690133FB617B6A002BD3D1FB6954
S2140031E018463437BD465DF8047B704780B59CB002
S2140031F002AFF860B9607A6000233B660023FB6587
S2140032000023BB61002387F84A3000233B61BB687C
S2140032107B6693E17B6C252B06D0FB68786C984721
S214003220BB690133BB6186E1012387F84B3000237D
S2140032307B650023BB651CE07B6E01337B667B6E83
S2140032401B785BB27B647B6C2F2B0DDD7B6C392B84
S2140032500ADC7A6D13469B0013445B001A467B6CAF
S2140032601344303B7B6504E07B6E013B7B660123A9
S214003270BB65BB6D002BDFD006233B657B6E013341
S2140032807B667B6E1B785BB22E2B25D100233B65BD
S2140032900023BB651CE07B6E01337B667B6E1B7870
S2140032A05BB27B647B6C2F2B0DDD7B6C392B0ADCD1
S2140032B03A6D13469B0013445B001A467B6C13441E
S2140032C0303B3B6504E07B6E013B7B660123BB65C0
S2140032D0BB6D002BDFD002E07B6E013B7B667B6E16
S2140032E001337B667B6E1B785BB27B647B6C642BE6
S2140032F01BD07B6C692B18D07B6C662B15D07B6C37
S214003300462B12D07B6C782B0FD07B6C582B0CD0B6
S2140033107B6C6F2B09D07B6C622B06D07B6C702B82
S21400332003D07B6C752B40F0C5807B6C642B02D081
S2140033307B6C692B17D17B681A1D7A601B687B61D2
S21400334007F11C0207F1140397F84B100091104682
S214003350194601220A23FFF7BDFEF86507F11C0295
S214003360FB6D13443B667B6C582B02D07B6C782B32
S2140033701DD17B6C782B02D1002387F84B307B68FD
S2140033801A1D7A601B683B6107F11C0207F11003E7
S21400339097F84B1000911046194600221023FFF7AD
S2140033A099FEF86507F11C02FB6D13443B667B6CC7
S2140033B06F2B08D07B6C622B05D07B6C702B02D0F9
S2140033C07B6C752B59D17B681A1D7A601B683B6134
S2140033D07B6C623B132B3BD801A252F823F000BF54
S2140033E039340000513400005134000051340000DC
S2140033F051340000513400005134000051340000B4
S21400340051340000513400005134000051340000A3
S21400341051340000313400004134000051340000C3
S214003420513400005134000051340000493400008B
S214003430082387F84A300CE0022387F84A3008E071
S214003440102387F84A3004E00A2387F84A3000E061
S21400345000BF97F84A3007F11C0107F1100297F8F1
S2140034604B000090084611460022FFF733FEF86531
S21400347007F11C02FB6D13443B667A6D07F11803D7
S214003480F96800912020F96DFFF704FE3B6E002BD3
S2140034900FD00AE03B6E5A1E3A661B785AB2FB689B
S2140034A010469847BB690133BB613B6E1B78002B07
S2140034B0F0D140E07B6C632B0DD17B681A1D7A60DF
S2140034C01B68DBB25BB23B64FB68386C9847BB6931
S2140034D00133BB612FE07B6C732B26D17B681A1DF2
S2140034E07A601B68FB64FB6C002B24D0F86C4DF0F4
S2140034F037FC0346FB657A6D07F11803F9680091FF
S2140035002020F96DFFF7C6FD0AE0FB6C5A1CFA6432
S2140035101B785AB2FB6810469847BB690133BB61FB
S214003520FB6C1B78002BF0D105E0FB68786C9847A5
S214003530BB690133BB617B6E01337B667B6E1B7898
S2140035405BB27B647B6C002B7FF464AEBB69184671
S2140035506837BD4680BD00BF80B400AF0B4B0B4A3A
S214003560D2F8882042F47002C3F88820084B4CF248
S2140035702052DA81064B4DF62812DA81044B4FF4BE
S214003580E9721A80BD465DF8047B704700ED00E0E6
S2140035900020054080B500AF254B264A1A60254816
S2140035A014211AF04DFA244B00221A70234B0022E5
S2140035B01A70234B234A1A60234B00221A60224BB0
S2140035C01B68184609F0CEF802F066FF0346012B8A
S2140035D006D11E4B002019460022002315F09CFB46
S2140035E0134B1A68184B1B681046194608F042F829
S2140035F0154B1A68164B1B681046194626F00AFD2E
S2140036000346002B13D100F0B1F9002009F0CAFCE4
S21400361011F084FC03461A460E4B1A700E4B00221D
S2140036201A700E4B00221A600D4B00221A7080BDD5
S214003630540DFF1F1C36FF1F300DFF1F340DFF1FDC
S2140036400C36FF1F893C0000C805FF1F9964000068
S2140036502006FF1FCF05FF1F5C0DFF1F580DFF1F25
S2140036605D0DFF1F80B582B000AF0123FB7113E034
S2140036700C4820F089FF0346FB710B4B1B78002B90
S2140036800AD1084B1B68002B06D0064B1B69184650
S214003690012115F0A9FC02E0FB79012BE8D00837E0
S2140036A0BD4680BD1C36FF1F085D050080B584B092
S2140036B000AF78607B68FB60FB68DB68BB60BB685C
S2140036C0002B05D0B86803F05DFBB8681AF026F941
S2140036D0F8681AF023F91037BD4680BD90B585B05E
S2140036E000AF78607B68FB60FB681B68544A9342B7
S2140036F035D0534A934217D8524A934270D0514A13
S214003700934207D803F1FC3303F20233012B00F295
S2140037108A8030E04C4A93421DD04B4A934230D3C5
S2140037204A4A93421BD07EE0494A934261D0484AB7
S214003730934206D8474A934252D0474A934243D0D0
S21400374071E0464A934267D0444A93425DD3444A66
S214003750934235D067E0002000F0B0FA64E0414BB9
S2140037601B68414A0021D154012000F0A7FA3F4BC4
S21400377000221A7058E0FB681B68184600F0D8FA5A
S21400378052E0042000F09AFA394A3A4B14460FCB1E
S21400379084E80F00334B1B68334A0121D154364B63
S2140037A000221A702F4B1B68184628F0D1FB2D4BB1
S2140037B01B68184607F06EFF2C4B01221A7033E088
S2140037C02A4B00221A702FE0264B1B68264A00213F
S2140037D0D154264B00221A70022000F06FFA23E024
S2140037E0204B1B68204A0021D154052000F066FAC1
S2140037F01AE0032000F062FA1C4B01221A70FB68E4
S2140038005B6818463BF012FB0EE0062000F056FA06
S214003810164B01221A7007E0042000F04FFA134BF3
S21400382001221A7000E000BFFB68DB6818461AF039
S21400383075F8F8681AF072F81437BD4690BD00BFE8
S2140038400700050301000503030005030400050344
S2140038500A00050308000503090005030C0005031C
S21400386011000503C805FF1F340DFF1F3136FF1F6B
S214003870400DFF1F909300202C0DFF1FF0B591B058
S21400388002AF78607B687B637B6B1A68334B1344AC
S214003890112B5DD801A252F823F000BF5139000069
S2140038A0513900005139000051390000E538000058
S2140038B0ED380000ED3800005139000051390000A5
S2140038C0F538000051390000513900005139000028
S2140038D051390000513900005139000051390000BB
S2140038E051390000012000F0E9F931E0002000F035
S2140038F0E5F92DE01A4A07F12C031068516803C356
S214003900184B1C4607F1080504F1200E2E462346E8
S214003910186859689A68DB680FC610341035744505
S214003920F4D12B46224612781A700F4B18683B7A51
S21400393007F12C0107F1080201320124009440F03F
S214003940E3FC094B1B681846012140F001FB00BF51
S214003950786B19F0E3FF3C37BD46F0BDFFFFF9FC7E
S2140039604017050048170500C805FF1FB0B58EB004
S21400397002AF104B07F108041D460FCD0FC40FCD44
S2140039800FC495E8030084E803000B4A3B1D10684B
S21400399018603A1D07F10803052100910020114622
S2140039A0002244F057F903461A46044B1A70303783
S2140039B0BD46B0BD6C17050094170500CD05FF1F6A
S2140039C080B582B000AF7860044B1B6818460121B2
S2140039D028F0B0F90837BD4680BD00BFC805FF1FF8
S2140039E080B582B000AF78600C4B1B78002B11D0EE
S2140039F00B4B01221A700B4B1B78184611F0B2FACB
S214003A00084BFF221A70084B1B68084800211A460C
S214003A1020F09AFD0837BD4680BD00BF2C0DFF1F65
S214003A202D0DFF1FCE05FF1F540DFF1FC1390000CF
S214003A3080B582B000AF7860344B1B68344AD35CE4
S214003A40002B0BD0314B1B68314AD35C052B05D0BD
S214003A502E4B1B682E4AD35C022B27D1012000F088
S214003A602DF92C4B01221A702B4B1B78FF2B05D1FE
S214003A7011F054FA03461A46274B1A70264B1B7849
S214003A80FF2B09D0244B1B7818464FF44871234A65
S214003A90002311F0CBFB08E0214B01221A701B4BD0
S214003AA01B681846012128F045F92BE0194B1B78B6
S214003AB0002B27D0174B00221A70194B1B78002BAF
S214003AC01DD1124B1A68174B53F8223093F82A3040
S214003AD0002B14D1104B1B78FF2B07D00E4B1B78F6
S214003AE0184611F03FFA0C4BFF221A70032000F024
S214003AF0E5F8064B1B68184627F060FF02E00A4B05
S214003B0001221A700837BD4680BD00BFC805FF1FDA
S214003B10300DFF1F2C0DFF1FCE05FF1FE1390000E3
S214003B202D0DFF1FD41CFF1F380DFF1F80B582B060
S214003B3000AF78607B68013B0B2B22D801A252F8BD
S214003B4023F000BF753B0000753B0000753B00008E
S214003B50753B0000833B0000833B0000833B000076
S214003B60833B00007D3B00007D3B00007D3B00006A
S214003B707D3B00007868FFF75BFF03E00AF036FA4B
S214003B8000E000BF0837BD4680BD00BF80B582B0EC
S214003B9000AF78607B68013B0B2B5ED801A252F821
S214003BA023F000BFD53B0000E53B0000F53B0000DE
S214003BB0053C0000153C0000253C0000353C00009C
S214003BC0453C0000553C0000553C0000553C0000BC
S214003BD0553C0000234B1B68234800211A4620F062
S214003BE0B3FC3BE01F4B1B68204800211A4620F020
S214003BF0ABFC33E01B4B1B681D4800211A4620F027
S214003C00A3FC2BE0174B1B681A4800211A4620F02D
S214003C109BFC23E0134B1B68174800211A4620F034
S214003C2093FC1BE00F4B1B68144800211A4620F03B
S214003C308BFC13E00B4B1B68114800211A4620F042
S214003C4083FC0BE0074B1B680E4800211A4620F049
S214003C507BFC03E00AF0CAF900E000BF0837BD4667
S214003C6080BD00BF540DFF1F3D3F0000093E000011
S214003C70794000002D410000913F0000C141000046
S214003C80654100009541000080B584B000AF7860C3
S214003C907B68FB60074B1B68074AD35C002B03D18D
S214003CA0F868FFF743FF02E0F868FFF76FFF10378A
S214003CB0BD4680BDC805FF1F340DFF1F80B582B00E
S214003CC000AF0346FB71154B1A68154B53F82230AC
S214003CD093F83630062B0CD1104B1B68114AD35C78
S214003CE0082B06D0104B1B68002B02D00E4B002270
S214003CF01A600A4B1B680B4AF979D154074B1B68AC
S214003D000A4AD25C054B1B680649CB5C104619462E
S214003D1008F0DAFE0837BD4680BD00BFC805FF1FA5
S214003D20D41CFF1F300DFF1F500DFF1F340DFF1F4B
S214003D3080B582B000AF7860184B1B78002B29D076
S214003D407A68174B9A421ED1164B1B78002B0DD063
S214003D50154B1B78002B09D1104B01221A70134B00
S214003D601B681846012127F0E5FF13E00E4B1B7871
S214003D70002B04D00D4B1B68184627F01FFE074B80
S214003D8000221A7006E07A68094B9A4202D1034B69
S214003D9000221A700837BD4680BD00BF2D0DFF1FDC
S214003DA003000303CC05FF1F380DFF1FC805FF1FC8
S214003DB00200030380B584B000AFB9607A603B6050
S214003DC00346FB73FB7B012B14D17B685B6B5A6845
S214003DD07B685B6B1B78104608491A461BF0DCF9BB
S214003DE00346002B06D0064B1B68064800211A46E1
S214003DF020F0AAFB1037BD4680BD00BF944D0500DD
S214003E00540DFF1F093E000080B588B000AF7860F3
S214003E100023BB6109F0EEF87861254B1B68184655
S214003E2026F072F838613B6993F83E30184621490F
S214003E3035F0C2FF0346002B2BD11F4B1B781846CC
S214003E4043F098F9B861BB69002B22D00223FB77B8
S214003E50BB6900229A62BB691846164910221BF0FD
S214003E605BF978694CF07CFFF860B869134943F059
S214003E7083FE104B1B78FF2B04D00123FB77BB6916
S214003E800F4A9A62FB7FB86919467A69FB6843F065
S214003E9067FC0C4811F054FD786911F051FD11F0E3
S214003EA015FD786919F03AFD2037BD4680BD00BF84
S214003EB0C805FF1F400DFF1FCD05FF1F904D0500D5
S214003EC0B53D00009817050090B589B000AF786042
S214003ED00B46FB70FF23FB77154B1B78184643F009
S214003EE049F9B861BB69002B1CD0124B07F10804D6
S214003EF00FCB84E80F00BB6900229A62BA6907F10B
S214003F0008031046194610221BF006F9B8690A493C
S214003F1043F032FEFB78B86902217A6843F020FC51
S214003F200346FB77FB7F18462437BD4690BD00BF8F
S214003F30CD05FF1F90930020984D050080B584B0F6
S214003F4000AF78600F4A07F1080392E80300186094
S214003F500433198002330A0C1A7007F10803184656
S214003F600721FFF7B1FF0346002B07D1064B1B685E
S214003F7018460121054A00232EF05EFC1037BD4688
S214003F8080BD00BF9C170500C805FF1F400DFF1F22
S214003F9080B584B000AF78600A4A07F1080392E85B
S214003FA0030083E8030007F1080318460821FFF71B
S214003FB08BFF0346002B02D1786800F001F910371A
S214003FC0BD4680BDA417050080B586B000AF7860FA
S214003FD00B46FB70234B1B68184625F095FF38618F
S214003FE03B6993F83E3018461F4935F0E5FE034618
S214003FF0002B2FD11D4B1B78184643F0BBF8F860FA
S214004000FB68002B25D00223FB75FB6800229A6212
S214004010FB681846144910221BF07EF8F86814490D
S21400402043F0AAFD104B1B78FF2B05D00123FB7530
S214004030FB68104A9A6204E0FB787868194600F03C
S21400404001F9FB78FA7DF86811467A6843F088FB38
S21400405005E004E0FB787868194600F0F3F81837B6
S214004060BD4680BDC805FF1F400DFF1FCD05FF1FC5
S214004070804D0500B53D0000B0B58AB002AF78604F
S214004080294B07F108041D460FCD0FC42B681A46AE
S214004090228002341B0C23700120FF2121F0A0F89F
S2140040A00346FB770120FF2121F09AF80346BB77F1
S2140040B00120FF2121F094F803467B77FA7F4FF02A
S2140040C0000307F108014C1D012100911046194616
S2140040D02246032320F093FDBA7F4FF0000307F13A
S2140040E0080101F10A0401210091104619462246F2
S2140040F0032320F084FD7A7F4FF0000307F10801C8
S21400410001F10F04012100911046194622460323AF
S21400411020F075FD07F1080318461321FFF754FF3A
S2140041202037BD46B0BD00BFAC170500B0B588B09F
S21400413000AF78600A4B07F10C041D460FCD0FC484
S2140041402B681A46228002341B0C237007F10C03DE
S21400415018461321FFF738FF2037BD46B0BD00BF15
S214004160AC17050080B584B000AF7860084A07F148
S214004170080392E8030018600433198007F1080367
S21400418018460621FFF720FF1037BD4680BD00BF4A
S214004190C017050080B586B000AF7860074A07F103
S2140041A00C0307CA83E8070007F10C0318460C2126
S2140041B0FFF70AFF1837BD4680BD00BFC8170500C9
S2140041C090B587B000AF7860074B07F108040FCBB7
S2140041D084E80F0007F108030448194610221AF075
S2140041E09BFF1C37BD4690BD90930020400DFF1FDF
S2140041F080B584B000AFB9607A603B600346FB735D
S214004200BB68002B0DD0FB7B002B0AD17B68B3F874
S2140042104830022B05D13B68DBB2B868194600F07F
S21400422011F8FB7B012B0AD07B6893F84730002BF4
S21400423005D1786803210022002343F091FA103755
S214004240BD4680BD80B584B000AF78600B46FB707D
S2140042506A4B1B686A4A0121D1546A4B00221A70C5
S2140042607868694902221AF097FF0346002B03D0AC
S2140042700720FFF723FDBEE07868644903221AF0A2
S2140042808BFF0346002B03D00820FFF717FDB2E094
S21400429078685F4906221AF07FFF0346002B03D09A
S2140042A00A20FFF70BFDA6E078685A4905221AF0A7
S2140042B073FF0346002B03D00920FFF7FFFC9AE0AC
S2140042C07868554903221AF067FF0346002B00F072
S2140042D0878051484CF044FD03467A681344FB60DF
S2140042E00023FB720023BB7200237B720B233B72FE
S2140042F049484CF035FD0346DBB2FA78D31AFB701A
S21400430035E0FB681B785BB2722B0AD1FB68013381
S214004310FB60FB78013BFB70F86820F046FC034628
S214004320FB72FB681B785BB2672B0AD1FB68013314
S214004330FB60FB78013BFB70F86820F036FC034618
S214004340BB72FB681B785BB2622B0AD1FB68013339
S214004350FB60FB78013BFB70F86820F026FC034608
S2140043607B72FB78013BFB70FB680133FB60FB78DC
S214004370002BC6D1F97ABA7A7B7A084611461A46D5
S21400438008F0B6FB3B7A1846FFF798FC1B4B1A68FA
S214004390224B53F8223093F83630062B1FD1FB7A87
S2140043A0002B1CD1BB7A002B19D17B7A002B16D19F
S2140043B01B4B1B68002B12D111F068F902460B4606
S2140043C010461946174A4FF00003FEF751FB024607
S2140043D00B46134603F13C02114B1A600BE00AE051
S2140043E0786811490B221AF0D7FE0346002B02D03C
S2140043F00C20FFF763FC1037BD4680BDC805FF1FC5
S214004400340DFF1F2C0DFF1FD4170500D81705000D
S214004410DC170500C0170500E4170500D41CFF1FB5
S214004420500DFF1F40420F00C817050090B599B009
S21400443000AF7446B9607A603B600346FB730023A6
S214004440FB650023BB650A237B657B68B3F84830B1
S214004450012B1BD12346142000211A4619F008FA16
S214004460F865FB6D002B05D14B4BFB654B4B0022D3
S2140044701A6006E0494B1B68F86D49491A464CF02D
S21400448043FCF86D4CF06CFCB86564E07B68B3F8F0
S2140044904830022B5FD1FB7B002B5CD1BB68002B26
S2140044A059D07A6807F114030A2011461A462E23BB
S2140044B020F086FD3B4811F043FA3B68002B18D0ED
S2140044C03A687B6D9A4202D37B6D013B3B6007F1F5
S2140044D048023B68134400221A7007F14803184646
S2140044E0B9683A681AF018FE07F14803184611F042
S2140044F059FA07F114032C48194611F053FA11F033
S214004500E5F907F1480207F14403104619460A2266
S2140045104CF0C8FC03461A46204B1A601F4B1B681B
S214004520002B0BD1214B1B78184610F095FE07F197
S21400453014031F48194611F035FA0CE01B4B1B7884
S214004540FF2B08D0194B1B7818464FF47A71194A7E
S214004550002310F055FE7B6893F84730002B11D1EE
S2140045607B68B3F84830012B06D178680321FA6DD2
S214004570BB6D43F0F5F805E07868032100220023C0
S21400458043F0EEF8FB6D002B02D0F86D19F0C6F97B
S2140045906437BD4690BD00BFE8170500580DFF1FE5
S2140045A0EC170500F017050010180500CF05FF1FD3
S2140045B02C1805003146000080B584B000AFB96005
S2140045C07A603B600346FB73BB68002B1BD0FB7B0B
S2140045D0002B18D1B868134906221AF0DDFD0346F1
S2140045E0002B05D07B681048194610221AF094FD5F
S2140045F0B8680E4907221AF0CFFD0346002B02D0FA
S2140046000020FFF7DDFD7B6893F84730002B05D1CF
S214004610786803210022002343F0A2F81037BD4635
S21400462080BD00BF9C170500400DFF1FA4170500A6
S21400463080B582B000AF7860044B1B680448002148
S2140046401A461FF081FF0837BD4680BD540DFF1F78
S2140046505546000080B590B000AF78601C4B1B78C4
S214004660FF2B03D11B4811F09DF92EE01A4B1B7847
S214004670184642F07FFDF863FB6B002B25D007F150
S2140046800C030A2012491A462E2320F099FC07F143
S2140046900C031248194611F085F9052387F83B30BC
S2140046A0FB6B0F4A9A62FB6B1846094910221AF0F8
S2140046B033FDF86B0B4943F05FFA97F83B30F86B25
S2140046C019460022002343F04BF84037BD4680BD14
S2140046D0400DFF1F44180500CD05FF1F7C18050080
S2140046E0E9460000904D0500B0B59EB000AFB96039
S2140046F07A603B600346FB73FB7B012B16D17B681D
S2140047005B6B5A687B685B6B1B7810464B491A4696
S2140047101AF042FD0346002B00F08A80484B1B68C7
S214004720484800211A461FF00FFF81E0BB68002BA7
S2140047307ED07A6807F110030A2011461A462E2307
S21400474020F03EFC404811F0FBF83B68002B16D0EA
S2140047503B68132B01D913233B6007F160023B68CB
S214004760134400221A7007F160031846B9683A68C5
S2140047701AF0D2FC07F16003184611F013F907F19E
S21400478010033248194611F00DF911F09FF807F1A1
S214004790600207F15C03104619460A224CF082FBC1
S2140047A003467B672A4B1B687A6F9A4222D3294BB3
S2140047B01B78002B3CD007F110032748194611F050
S2140047C0F1F80820FFF77AFA244B07F148041D4653
S2140047D00FCD0FC42B681A46228002341B0C2370A0
S2140047E007F1480318461321FFF7EEFB194B00228A
S2140047F01A701DE0174B1B78002B19D107F1100318
S2140048001748194611F0CEF80720FFF757FA154A51
S21400481007F1400392E8030018600433198007F19B
S214004820400318460621FFF7CFFB0A4B01221A70F9
S214004830786842F001FD7837BD46B0BD944D05005E
S214004840540DFF1F554600009C1805001018050063
S214004850580DFF1F5C0DFF1F2C180500AC17050038
S214004860B0180500C017050080B588B000AFB96065
S2140048707A603B600346FB730023FB610023BB6149
S214004880294A07F114031268114619800233120CE4
S2140048901A70264B3B61FB7B002B0AD17B68B3F872
S2140048A04830022B05D10720FFF708FA204B0122DB
S2140048B01A707B68B3F84830012B15D1FB7B002BB0
S2140048C012D11B4B1B78012B07D107F11403FB6198
S2140048D0F8694CF045FAB86106E007F11003FB6191
S2140048E0F8694CF03DFAB8617B6893F84730002BC6
S2140048F011D17B68B3F84830012B06D178680321C4
S214004900FA69BB6942F02CFF05E0786803210022B3
S214004910002342F025FFFB69002B02D0F86918F04F
S214004920FDFF2037BD4680BDC81805004F4646002F
S2140049305D0DFF1F80B588B000AFB9607A603B6040
S2140049400346FB730023FB610023BB61274B7B619F
S214004950274A07F110031268114619800233120C19
S2140049601A70FB7B002B0AD17B68B3F84830022B09
S21400497005D10820FFF7A2F91E4B00221A707B68AB
S214004980B3F84830012B15D1FB7B002B12D1194B05
S2140049901B78002B07D107F11403FB61F8694CF074
S2140049A0DFF9B86106E007F11003FB61F8694CF027
S2140049B0D7F9B8617B68B3F84830012B06D1786820
S2140049C00321FA69BB6942F0CBFE05E07868032153
S2140049D00022002342F0C4FEFB69002B02D0F869D7
S2140049E018F09CFF2037BD4680BD00BF4F464600EE
S2140049F0C81805005D0DFF1F80B400AF00BEBD46A1
S214004A005DF8047B704700BF80B400AFBD465DF81C
S214004A10047B704780B582B000AF786039607868F4
S214004A2049F07CFC02463B681A603B681B68B3F1A1
S214004A30FF3F08D03B681B68054806491A4649F000
S214004A40BDFC054B00E0002318460837BD4680BD78
S214004A50814F0000C54F0000B04D050080B582B004
S214004A6000AF78603960044879681C221AF054FB5D
S214004A700837BD4680BD00BF600DFF1F80B582B001
S214004A8000AF03463960FB80BB1D502019463A68CC
S214004A9001F0EEF8034618460837BD4680BD00BF55
S214004AA080B584B000AF78600023FB8107F10E0369
S214004AB0502019467A6801F027F9FB891846103706
S214004AC0BD4680BD80B582B000AF03463960FB802E
S214004AD0BB1D532019463A6801F0CAF8034618462B
S214004AE00837BD4680BD00BF80B584B000AF786093
S214004AF00023FB8107F10E03532019467A6801F064
S214004B0003F9FB8918461037BD4680BD80B584B0D2
S214004B1000AFC7E902017A6007F1080330201946A2
S214004B207A6801F0A5F8034618461037BD4680BDE2
S214004B3080B582B000AF03463960FB71FB1D2820AC
S214004B4019463A6801F094F8034618460837BD46F9
S214004B5080BD00BF80B584B000AF78604FF0000223
S214004B604FF00003C7E9022307F108033020194677
S214004B707A6801F0C9F8D7E90223104619461037BB
S214004B80BD4680BD80B588B000AFB9607B60034687
S214004B90FB731346BB73FF233B7500237B75002313
S214004BA0BB750023FB7500233B7600237B76002332
S214004BB0BB760023FB7600233B7707F10F03962096
S214004BC019467A6801F054F80346FB77FB7F012B01
S214004BD006D18520B9687A6801F04AF80346FB7763
S214004BE0FB7F012B0AD1BB7B3B7707F11403942094
S214004BF019467A6801F03CF80346FB77FB7F1846B7
S214004C002037BD4680BD00BF80B586B000AF0346E6
S214004C10B9607A60FB7307F10F03962019467A682D
S214004C2001F026F80346FB75FB7D012B06D1852097
S214004C30B9687A6801F068F80346FB75FB7D18468C
S214004C401837BD4680BD00BF80B582B000AF0346B2
S214004C503960FB71FB1D212019463A6801F008F8FF
S214004C60034618460837BD4680BD00BF80B584B0F1
S214004C7000AF78600023FB7307F10F03212019466D
S214004C807A6801F041F8FB7B18461037BD4680BDB8
S214004C9080B582B000AF03463960FB71FB1D522021
S214004CA019463A6800F0E4FF034618460837BD4642
S214004CB080BD00BF80B584B000AF78600023FB7372
S214004CC007F10F03522019467A6801F01DF8FB7BA6
S214004CD018461037BD4680BD80B592B000AF7860EC
S214004CE0396058237B643868FFF7DAFE03463B8159
S214004CF07B681B783B767B685B787B767B685B881B
S214004D007B837B68D3E90223C7E908237B6893F893
S214004D10263087F82A307B685B7C87F82B307B68E8
S214004D209B7C87F82C307B68D3E90623C7E90C23E5
S214004D307B68DB7C87F8383007F10803184649F0B3
S214004D40F1F803467B647B6C18464837BD4680BD49
S214004D5080B586B000AF3B600346FB710B46BB7167
S214004D6013467B71FF233B7400237B740023BB74C4
S214004D700023FB7400233B7500237B750023BB7563
S214004D800023FB755D2001213A6801F009F807F160
S214004D9010037C2019463A6800F06AFF782007F175
S214004DA020013A6800F064FF01237B7307F10D03CE
S214004DB0792019463A6800F05BFF0023FB738CE00D
S214004DC0FB7B7A799A4200D083E007F10F039620A6
S214004DD019463A6800F04CFF992000213A6800F026
S214004DE0DFFF952001213A6800F0DAFF0023BB734D
S214004DF034E07B79BA7902FB03F3DAB2BB7B134467
S214004E00DBB23B730023BB6007F10E039B20194601
S214004E103A6800F02DFF07F10C03882019463A681F
S214004E2000F026FF892000213A6800F0B9FF8A20AA
S214004E3000213A6800F0B4FF07F10C0397201946EA
S214004E403A6800F015FF07F10803922019463A6801
S214004E5000F00EFFBB7B0133DBB2BB73BB7BBA79C2
S214004E609A42C6D89A2000213A6800F099FF862018
S214004E7001213A6800F094FF872000213A6800F08C
S214004E808FFF9A2001213A6800F08AFF86200321CE
S214004E903A6800F085FF872004213A6800F080FF1A
S214004EA0982000213A6800F07BFF8B2001213A68A9
S214004EB000F076FF8C2000213A6800F071FF8D200C
S214004EC000213A6800F06CFF8E2001213A6800F05D
S214004ED067FFFB7B0133DBB2FB73FB7BFA799A42FD
S214004EE03FF66EAF1837BD4680BD00BF80B584B0B4
S214004EF000AFF871B9717A713B710023FB7337E02C
S214004F00FB7BBA7902FB03F3DAB2FB791344DBB21C
S214004F10BB7307F10E0397201946FA6A00F0A8FE45
S214004F20912007F11801FA6A00F0A2FE07F12003AB
S214004F3090201946FA6A00F09BFE07F124038F20A2
S214004F401946FA6A00F094FE93200121FA6A00F0EE
S214004F5027FFFA7B7B799A4200D006E007F1280308
S214004F6092201946FA6A00F083FEFB7B0133FB733E
S214004F70FA7B3B799A42C3D31037BD4680BD00BF4B
S214004F8080B582B000AF786039607B681B78022BF2
S214004F9009D0042B0CD0012B00D00EE078683968BD
S214004FA000F0C2F909E07868396800F079F804E0A2
S214004FB07868396800F004FA00BF002318460837FE
S214004FC0BD4680BD80B582B000AF786039607B6832
S214004FD01B780D3B182B5AD801A252F823F000BFBD
S214004FE0575000008F5000008F5000008F50000078
S214004FF08F5000008F5000008F5000008F50000030
S2140050008F5000008F5000008F5000008F5000001F
S2140050108F50000045500000655000008F50000083
S2140050208F5000008F5000008F5000008F500000FF
S2140050308F5000008F5000008F500000735000000B
S214005040815000007B6808331846396800F090FDF0
S21400505018F094FA1CE07B6808331846396800F0AC
S21400506011FD15E07B6808331846396800F0ACFE81
S2140050700EE07B6808331846396800F07BFF07E0CF
S2140050807B6808331846396800F046FF00E000BF2A
S214005090786818F043FC002318460837BD4680BDE4
S2140050A090B587B002AF7446786039600023FB7312
S2140050B00023BB737B6893F82230002B04D07B68F8
S2140050C093F82230012B11D13B681B681B681846E9
S2140050D00021022224F010FF03461846B0210222C7
S2140050E025F06CFE786818F019FC14E17B689B7C50
S2140050F0022B12D17B68D3E902014FF6FF724FF004
S2140051000003994208BF904207D1844B1B78002BBE
S21400511003D1786818F002FCFDE07B6893F8221053
S2140051207B68D3E90623786824300090084601F0AF
S214005130BBF80346012B40F0C580794B1A7823460E
S214005140382011461A4618F093FBB860BB68002B4F
S21400515000F0AA80BB683A681A607B6893F8222041
S214005160BB681A717B689A7CBB685A717B681A8A1E
S214005170BB68DA807B68D3E90223B968C1E90223F9
S2140051807B68D3E90623B968C1E904237B681A8CD7
S214005190BB681A837B6893F823301A46BB685A8329
S2140051A07B689A6ABB68DA617B6893F82420BB68E0
S2140051B083F820207B6893F82520BB6883F821209D
S2140051C07B6893F82C20BB6883F822207B6893F8D2
S2140051D02D20BB6883F823207B68D3E90C23B968AD
S2140051E0C1E90A237B6893F83820BB6883F830202F
S2140051F0BB68002283F83120BB687A685A63BB68B4
S2140052001B79022B0DD1BB68D3E904014FF6FF7260
S2140052104FF0000302EA000203EA0103B968C1E99D
S2140052200423BB685B79022B1AD1BB68D3E9020161
S2140052304FF6FF724FF0000302EA000203EA010392
S214005240B968C1E90223BB68D3E902014FF6FF72D1
S2140052504FF00003994208BF904201D10123BB736F
S214005260BB68596B7B68DA6BBB685B8B084611467C
S2140052701A4619F0CFFF2B4B9B69002B08D0BB6852
S21400528093F82330022B03D1264B9B69B8689847C6
S214005290BB681A79BB681033B86811461A4643F0E3
S2140052A003FE0123FB7310E07B6893F822207B68E3
S2140052B01833002011461A4643F0F6FD786818F0B9
S2140052C02DFB02E0786818F029FBFB7B002B0ED143
S2140052D03B681B681B6818460021022224F00CFE5F
S2140052E003461846B521022225F068FD13E03B6808
S2140052F01B681B6818460021022224F0FDFD0246AA
S214005300BB7B002B01D0B42300E0B3231046194624
S214005310022225F053FD1437BD4690BDD005FF1F71
S21400532074540500600DFF1F80B586B000AF78602E
S21400533039603B68FB607B681B7A3B757B685B7AF1
S2140053407B757B68DB683B6107F10C037868194660
S2140053500C2219F0E1FE184B5B69002B05D0164BAA
S2140053605B6907F10C0210469847786843F084FDA5
S2140053707B685B7A002B05D0104B1B695A1C0F4BC1
S2140053801A6104E00D4BDB685A1C0C4BDA607B6834
S2140053905B7A002B0AD038680021022224F0ACFD8C
S2140053A003461846B121022225F008FD07F0F8FB57
S2140053B01837BD4680BD00BF600DFF1F7C0DFF1F68
S2140053C080B582B000AF78603960786818F0A6FAC9
S2140053D00837BD4680BD00BF80B588B000AF7346B5
S2140053E0F860B9607A600022BA61F122FA7700228A
S2140053F0BA77764A1268511C744A1160FA68928C21
S21400540002F14001724A1278084611461A4618F010
S2140054102FFAB861BB69002B00F0C480BB6903F1AA
S2140054204002BB69DA63BB69D96BFB681A6AFB6822
S2140054309B8C084611461A4619F06EFEBB69002280
S2140054401A70B868FFF72CFB03461A46BB691A8128
S214005450FB681B78022B0AD1B868FFF745FB0346AA
S2140054609AB24FF00003B969C1E904230BE0FB6868
S2140054701B78032B07D1B868FFF76CFB02460B4678
S214005480B969C1E90423FB68D3E90223B969C1E914
S2140054900823FB685A78BB695A76FB685A88BB694A
S2140054A05A83FB689A7CBB6983F82C20FB68DA7CFD
S2140054B0BB6983F83820FB681A7CBB6983F829200F
S2140054C0FB689B8CDAB2BB6983F82820FB685A7CA1
S2140054D0BB6983F82B20FB681A78BB691A76FB68D1
S2140054E093F82620BB6983F82A20FB68D3E90623B5
S2140054F0B969C1E90C23FB685B78022B0CD1FB6809
S214005500D3E902014FF6FF724FF00003994208BF3D
S214005510904201D10123BB77B869B96848F05AFFB9
S2140055200346FB77FB7F002B23D0284B9B685A1C37
S214005530264B9A60BB697B61BB6993F829207B691F
S2140055401A727B697A681A607B69FA7F5A727B697D
S21400555000225A60786943F08FFCB8680021022266
S21400556024F0CAFC03461846B221022225F026FC87
S21400557026E0164B5B685A1C144B5A6007F0EAFA92
S214005580B8680021022224F0B7FC0246BB7F002B3D
S21400559001D0B72300E0B62310461946022225F0B4
S2140055A00DFC0DE0002043F067FCB86800210222E5
S2140055B024F0A2FC03461846B821022225F0FEFB82
S2140055C0FB7F18462037BD4680BD00BF7C0DFF1F01
S2140055D07454050080B586B000AF73460246396045
S2140055E0FA71F122FA75124A1278402011461A46CC
S2140055F018F03EF938613B69002B14D03B69032252
S2140056001A703B690833FB60FB68FA791A703869D0
S214005610396848F0DFFE0346FB75FB7D002B02D0A1
S214005620386918F07BF9FB7D18461837BD4680BDF3
S2140056307454050080B592B000AF7860396007F109
S214005640080300221A60043300221A600433002282
S2140056501A60043300221A60043300221A600433EE
S21400566000221A60043300221A60043300221A60F3
S214005670043300221A60043300221A600433002226
S2140056801A60043300221A60043300221A600433BE
S21400569000221A6004331C233B727B681B68DBB253
S2140056A03B747B685B68DBB27B747B689B687B6162
S2140056B007F108031846396849F022F8034687F8C8
S2140056C0473097F8473018464837BD4680BD00BF7C
S2140056D090B595B000AF74467860396007F108035E
S2140056E000221A60043300221A60043300221A6073
S2140056F0043300221A60043300221A6004330022A6
S2140057001A60043300221A60043300221A6004333D
S21400571000221A60043300221A60043300221A6042
S214005720043300221A60043300221A600433002275
S2140057301A6004330E233B72254B1A78234610203A
S21400574011461A4618F094F8F864FB6C002B39D012
S2140057507B681B68DBB2184647F08EFC034619468A
S2140057601B4B1A782346084611461A4618F080F84E
S214005770B864BB6C002B22D07B685B68DBB27B74A2
S2140057807B681B68DBB23B74BB6C7B6107F108036C
S2140057901846396848F0B4FF034687F847307B68F8
S2140057A01A68FB6C1A607B685A68FB6C5A60FB6C64
S2140057B0BA6C9A60FB6C97F847201A7302E0F86C94
S2140057C018F0ACF8FB6C18465437BD4690BD00BFC9
S2140057D07454050080B485B000AF7860396000234B
S2140057E0FB73FB7B18461437BD465DF8047B704799
S2140057F090B58DB000AF7446F860B9607A6007F176
S214005800140300221A60043300221A6004330022B4
S2140058101A6004337B687B61F1233B76364B1A783B
S2140058202346382011461A4618F022F8F862FB6A1A
S214005830002B57D0FB6A19221A70FB6A0833BB622A
S214005840BB681A78BB6A1A70BB685A68BB6A5A602B
S214005850BB681A7ABB6A1A72BB6A00229A7217F081
S214005860A3FEBB6A1B78012B02D1244B01221A70BF
S214005870F86A796848F044FF034687F8273097F8B7
S21400588027303B7697F82730002B2BD01B4B002277
S2140058901A7017F073FE1A4B5B68002B1FD0FB6A5A
S2140058A03B623B6A97F827201A713B6A7A681A604F
S2140058B0BB681A783B6A5A713B6A00229A713B6A47
S2140058C000229A600E4B5B68386A9847BB681B7864
S2140058D0012B03D1094B00221A7003E002E0F86A9C
S2140058E018F01CF8FB6807F1140207CA83E80700E3
S2140058F0F8683437BD4690BD74540500900DFF1F00
S214005900600DFF1F80B586B000AF734678603960C3
S214005910F122FA75204A1278382011461A4617F0F6
S214005920A7FF38613B69002B31D03B691E221A70F5
S2140059303B690833FB60FB680F221A72FB680F2274
S2140059405A72FB6800229A72FB6800225A76FB683D
S21400595000225A73FB680022DA72FB6800221A7370
S2140059607B689A78FB689A70FB680022DA707B681E
S2140059701A88FB681A803869396848F0C1FE034601
S214005980FB75FB7D002B02D0386917F0C7FFFB7D47
S21400599018461837BD4680BD7454050090B587B0CC
S2140059A000AF744678603960334B1A782346382047
S2140059B011461A4617F05CFF78617B69002B57D0BA
S2140059C07B6923221A707B6908333B617B681A78EF
S2140059D03B691A707B685A883B695A807B68D3E9B2
S2140059E002233969C1E902237B681A7C3B691A7471
S2140059F07B685A7C3B695A747B68D3E9062339690D
S214005A00C1E906237B6893F820203B6983F82020B1
S214005A107869396848F074FE0346FB73FB7B002BFD
S214005A2024D0786917F07AFF14480021002200235A
S214005A301EF04EFD124B1B69002B16D00E4B1A782B
S214005A402346082011461A4617F012FFB860BB68B6
S214005A50002B0AD0BB683A681A60BB68FA7B1A71DA
S214005A60074B1B69B868984702E001E007F072F838
S214005A701C37BD4690BD00BF7454050014000503D6
S214005A80600DFF1F90B587B002AF7446786039602E
S214005A907B689B68987A7B6899680A684B6879681F
S214005AA089681031009100F0FFFB0346012B51D1AD
S214005AB02C4B1B68002B4DD02B4B1B78002B49D052
S214005AC07B689B7803F11801284B1A782346084612
S214005AD011461A4617F0CCFEF860FB68002B05D17D
